{
  "contractName": "FruitTrace",
  "abi": [
    {
      "anonymous": false,
      "inputs": [
        {
          "indexed": false,
          "internalType": "uint256",
          "name": "fruitId",
          "type": "uint256"
        },
        {
          "indexed": false,
          "internalType": "string",
          "name": "name",
          "type": "string"
        },
        {
          "indexed": false,
          "internalType": "string",
          "name": "location",
          "type": "string"
        }
      ],
      "name": "FruitAdded",
      "type": "event"
    },
    {
      "inputs": [
        {
          "internalType": "uint256",
          "name": "",
          "type": "uint256"
        }
      ],
      "name": "fruits",
      "outputs": [
        {
          "internalType": "string",
          "name": "name",
          "type": "string"
        },
        {
          "internalType": "string",
          "name": "location",
          "type": "string"
        },
        {
          "internalType": "uint256",
          "name": "supplyDate",
          "type": "uint256"
        },
        {
          "internalType": "uint256",
          "name": "expiryDate",
          "type": "uint256"
        },
        {
          "internalType": "string",
          "name": "vendor",
          "type": "string"
        },
        {
          "internalType": "string",
          "name": "traceInfo",
          "type": "string"
        },
        {
          "internalType": "uint256",
          "name": "fruitId",
          "type": "uint256"
        }
      ],
      "stateMutability": "view",
      "type": "function",
      "constant": true
    },
    {
      "inputs": [
        {
          "internalType": "string",
          "name": "name",
          "type": "string"
        },
        {
          "internalType": "string",
          "name": "location",
          "type": "string"
        },
        {
          "internalType": "uint256",
          "name": "supplyDate",
          "type": "uint256"
        },
        {
          "internalType": "uint256",
          "name": "expiryDate",
          "type": "uint256"
        },
        {
          "internalType": "string",
          "name": "vendor",
          "type": "string"
        },
        {
          "internalType": "string",
          "name": "traceInfo",
          "type": "string"
        },
        {
          "internalType": "uint256",
          "name": "fruitId",
          "type": "uint256"
        }
      ],
      "name": "addFruit",
      "outputs": [],
      "stateMutability": "nonpayable",
      "type": "function"
    },
    {
      "inputs": [
        {
          "internalType": "uint256",
          "name": "fruitId",
          "type": "uint256"
        }
      ],
      "name": "getFruit",
      "outputs": [
        {
          "internalType": "string",
          "name": "name",
          "type": "string"
        },
        {
          "internalType": "string",
          "name": "location",
          "type": "string"
        },
        {
          "internalType": "uint256",
          "name": "supplyDate",
          "type": "uint256"
        },
        {
          "internalType": "uint256",
          "name": "expiryDate",
          "type": "uint256"
        },
        {
          "internalType": "string",
          "name": "vendor",
          "type": "string"
        },
        {
          "internalType": "string",
          "name": "traceInfo",
          "type": "string"
        }
      ],
      "stateMutability": "view",
      "type": "function",
      "constant": true
    }
  ],
  "bytecode": "0x608060405234801561001057600080fd5b50610f05806100206000396000f3fe608060405234801561001057600080fd5b50600436106100415760003560e01c80635ebc18ce1461004657806376ce7fe9146102e4578063c4172162146104dd575b600080fd5b6102e2600480360360e081101561005c57600080fd5b810190808035906020019064010000000081111561007957600080fd5b82018360208201111561008b57600080fd5b803590602001918460018302840111640100000000831117156100ad57600080fd5b91908080601f016020809104026020016040519081016040528093929190818152602001838380828437600081840152601f19601f8201169050808301925050505050505091929192908035906020019064010000000081111561011057600080fd5b82018360208201111561012257600080fd5b8035906020019184600183028401116401000000008311171561014457600080fd5b91908080601f016020809104026020016040519081016040528093929190818152602001838380828437600081840152601f19601f8201169050808301925050505050505091929192908035906020019092919080359060200190929190803590602001906401000000008111156101bb57600080fd5b8201836020820111156101cd57600080fd5b803590602001918460018302840111640100000000831117156101ef57600080fd5b91908080601f016020809104026020016040519081016040528093929190818152602001838380828437600081840152601f19601f8201169050808301925050505050505091929192908035906020019064010000000081111561025257600080fd5b82018360208201111561026457600080fd5b8035906020019184600183028401116401000000008311171561028657600080fd5b91908080601f016020809104026020016040519081016040528093929190818152602001838380828437600081840152601f19601f820116905080830192505050505050509192919290803590602001909291905050506106dd565b005b610310600480360360208110156102fa57600080fd5b81019080803590602001909291905050506108d1565b604051808060200180602001878152602001868152602001806020018060200185810385528b818151815260200191508051906020019080838360005b8381101561036857808201518184015260208101905061034d565b50505050905090810190601f1680156103955780820380516001836020036101000a031916815260200191505b5085810384528a818151815260200191508051906020019080838360005b838110156103ce5780820151818401526020810190506103b3565b50505050905090810190601f1680156103fb5780820380516001836020036101000a031916815260200191505b50858103835287818151815260200191508051906020019080838360005b83811015610434578082015181840152602081019050610419565b50505050905090810190601f1680156104615780820380516001836020036101000a031916815260200191505b50858103825286818151815260200191508051906020019080838360005b8381101561049a57808201518184015260208101905061047f565b50505050905090810190601f1680156104c75780820380516001836020036101000a031916815260200191505b509a505050505050505050505060405180910390f35b610509600480360360208110156104f357600080fd5b8101908080359060200190929190505050610b90565b604051808060200180602001888152602001878152602001806020018060200186815260200185810385528c818151815260200191508051906020019080838360005b8381101561056757808201518184015260208101905061054c565b50505050905090810190601f1680156105945780820380516001836020036101000a031916815260200191505b5085810384528b818151815260200191508051906020019080838360005b838110156105cd5780820151818401526020810190506105b2565b50505050905090810190601f1680156105fa5780820380516001836020036101000a031916815260200191505b50858103835288818151815260200191508051906020019080838360005b83811015610633578082015181840152602081019050610618565b50505050905090810190601f1680156106605780820380516001836020036101000a031916815260200191505b50858103825287818151815260200191508051906020019080838360005b8381101561069957808201518184015260208101905061067e565b50505050905090810190601f1680156106c65780820380516001836020036101000a031916815260200191505b509b50505050505050505050505060405180910390f35b6040518060e0016040528088815260200187815260200186815260200185815260200184815260200183815260200182815250600080838152602001908152602001600020600082015181600001908051906020019061073e929190610e32565b50602082015181600101908051906020019061075b929190610e32565b506040820151816002015560608201518160030155608082015181600401908051906020019061078c929190610e32565b5060a08201518160050190805190602001906107a9929190610e32565b5060c082015181600601559050507ffde6eba0409c9d9e17ab03fce898c0fbecb98ec7e35885670027acb1bda1a35a818888604051808481526020018060200180602001838103835285818151815260200191508051906020019080838360005b8381101561082557808201518184015260208101905061080a565b50505050905090810190601f1680156108525780820380516001836020036101000a031916815260200191505b50838103825284818151815260200191508051906020019080838360005b8381101561088b578082015181840152602081019050610870565b50505050905090810190601f1680156108b85780820380516001836020036101000a031916815260200191505b509550505050505060405180910390a150505050505050565b606080600080606080600080600089815260200190815260200160002090508060000181600101826002015483600301548460040185600501858054600181600116156101000203166002900480601f01602080910402602001604051908101604052809291908181526020018280546001816001161561010002031660029004801561099f5780601f106109745761010080835404028352916020019161099f565b820191906000526020600020905b81548152906001019060200180831161098257829003601f168201915b50505050509550848054600181600116156101000203166002900480601f016020809104026020016040519081016040528092919081815260200182805460018160011615610100020316600290048015610a3b5780601f10610a1057610100808354040283529160200191610a3b565b820191906000526020600020905b815481529060010190602001808311610a1e57829003601f168201915b50505050509450818054600181600116156101000203166002900480601f016020809104026020016040519081016040528092919081815260200182805460018160011615610100020316600290048015610ad75780601f10610aac57610100808354040283529160200191610ad7565b820191906000526020600020905b815481529060010190602001808311610aba57829003601f168201915b50505050509150808054600181600116156101000203166002900480601f016020809104026020016040519081016040528092919081815260200182805460018160011615610100020316600290048015610b735780601f10610b4857610100808354040283529160200191610b73565b820191906000526020600020905b815481529060010190602001808311610b5657829003601f168201915b505050505090509650965096509650965096505091939550919395565b6000602052806000526040600020600091509050806000018054600181600116156101000203166002900480601f016020809104026020016040519081016040528092919081815260200182805460018160011615610100020316600290048015610c3c5780601f10610c1157610100808354040283529160200191610c3c565b820191906000526020600020905b815481529060010190602001808311610c1f57829003601f168201915b505050505090806001018054600181600116156101000203166002900480601f016020809104026020016040519081016040528092919081815260200182805460018160011615610100020316600290048015610cda5780601f10610caf57610100808354040283529160200191610cda565b820191906000526020600020905b815481529060010190602001808311610cbd57829003601f168201915b505050505090806002015490806003015490806004018054600181600116156101000203166002900480601f016020809104026020016040519081016040528092919081815260200182805460018160011615610100020316600290048015610d845780601f10610d5957610100808354040283529160200191610d84565b820191906000526020600020905b815481529060010190602001808311610d6757829003601f168201915b505050505090806005018054600181600116156101000203166002900480601f016020809104026020016040519081016040528092919081815260200182805460018160011615610100020316600290048015610e225780601f10610df757610100808354040283529160200191610e22565b820191906000526020600020905b815481529060010190602001808311610e0557829003601f168201915b5050505050908060060154905087565b828054600181600116156101000203166002900490600052602060002090601f016020900481019282601f10610e7357805160ff1916838001178555610ea1565b82800160010185558215610ea1579182015b82811115610ea0578251825591602001919060010190610e85565b5b509050610eae9190610eb2565b5090565b5b80821115610ecb576000816000905550600101610eb3565b509056fea264697066735822122015dddb794a9bab62c13af7c7a1879771e52ac7f24da76f3894dd96994553234f64736f6c63430007010033",
  "immutableReferences": {},
  "source": "// SPDX-License-Identifier: MIT\r\npragma solidity ^0.7.1;\r\n\r\ncontract FruitTrace {\r\n    struct Fruit {\r\n        string name;\r\n        string location;\r\n        uint256 supplyDate;\r\n        uint256 expiryDate;\r\n        string vendor;\r\n        string traceInfo;\r\n        uint256 fruitId;\r\n    }\r\n\r\n    mapping(uint256 => Fruit) public fruits;\r\n\r\n    event FruitAdded(uint256 fruitId, string name, string location);\r\n\r\n    function addFruit(\r\n        string memory name,\r\n        string memory location,\r\n        uint256 supplyDate,\r\n        uint256 expiryDate,\r\n        string memory vendor,\r\n        string memory traceInfo,\r\n        uint256 fruitId\r\n    ) public {\r\n        fruits[fruitId] = Fruit(name, location, supplyDate, expiryDate, vendor, traceInfo, fruitId);\r\n        emit FruitAdded(fruitId, name, location);\r\n    }\r\n\r\n    function getFruit(uint256 fruitId) public view returns (\r\n        string memory name,\r\n        string memory location,\r\n        uint256 supplyDate,\r\n        uint256 expiryDate,\r\n        string memory vendor,\r\n        string memory traceInfo\r\n    ) {\r\n        Fruit storage fruit = fruits[fruitId];\r\n        return (\r\n            fruit.name,\r\n            fruit.location,\r\n            fruit.supplyDate,\r\n            fruit.expiryDate,\r\n            fruit.vendor,\r\n            fruit.traceInfo\r\n        );\r\n    }\r\n}\r\n",
  "sourcePath": "C:/Users/mahad/Desktop/fruit_sell/fruit_sell/blockchain/contracts/FruitTrace.sol",
  "compiler": {
    "name": "solc",
    "version": "0.7.1+commit.f4a555be.Emscripten.clang"
  },
  "schemaVersion": "3.2.3",
  "updatedAt": "2024-06-23T04:08:35.282Z",
  "networkType": "ethereum",
  "devdoc": {
    "kind": "dev",
    "methods": {},
    "version": 1
  },
  "userdoc": {
    "kind": "user",
    "methods": {},
    "version": 1
  }
}